:020000040800F2
:1000000020040020ED01000851180008E50E00084A
:100010004D18000841020008853800080000000063
:10002000000000000000000000000000613800082F
:100030004502000800000000551800086538000857
:10004000070200080702000807020008070200086C
:10005000070200080702000807020008070200085C
:10006000070200080702000807020008070200084C
:10007000070200080702000807020008070200083C
:10008000070200080000000007020008070200083D
:10009000070200080702000807020008070200081C
:1000A000070200080702000807020008070200080C
:1000B00007020008070200080702000807020008FC
:1000C00007020008070200080702000807020008EC
:1000D00007020008070200080702000807020008DC
:1000E00007020008070200080702000807020008CC
:1000F00007020008070200080702000800000000CD
:1001000000000000070200080000000007020008CD
:1001100007020008000000000702000807020008AC
:10012000070200080702000807020008070200088B
:10013000070200080000000000000000070200089D
:10014000070200080702000800000000000000008D
:10015000000000000000000000000000000000009F
:10016000000000000000000000000000070200087E
:10017000070200080000000000000000000000006E
:10018000000000000702000800000000000000005E
:10019000000000000000000000000000000000005F
:1001A000000000000000000007020008070200082D
:1001B000070200080702000807020008000000000C
:1001C000000000000702000800000000000000001E
:1001D0000702000807020008DFF80CD000F018F84A
:1001E000004800478938000820040020064880475E
:1001F00006480047FEE7FEE7FEE7FEE7FEE7FEE70C
:10020000FEE7FEE7FEE7FEE769380008D9010008CF
:100210001CB509480090094801900546009C06E07D
:10022000E06840F0010394E8070098471034AC42BE
:10023000F6D3FFF7D5FF0000C04C0008E04C0008E3
:10024000FEE7000070470000B0B5044600F004F976
:10025000054640F20000C2F200004068611C18BF71
:10026000044400BF00F0F8F8401BA042FAD3B0BD30
:100270000A68002A08BF70472DE9F04F82B000F1EC
:100280003847860546EA972741F20046C4F600063D
:100290000623B04208BF0523052F38BF3B46002484
:1002A0004FF0010900260027009309E00A68013792
:1002B00032FA07F306F1020604F1040400F0B480F8
:1002C00009FA07FB12EA0B08F0D0D1F804C0BCF120
:1002D000120F00F2A38009FA0CF212F0061F00F0D0
:1002E0009D8082680323D1F80CA003FA06FE22EA5F
:1002F0000E020AFA06F52A43826045684FEA1C138B
:1003000025EA0B05BB404FEA47096FEA0E0E2B4367
:100310004360C3688D6803EA0E0305FA09F52B43B1
:100320004CF01005122DC36015D16FF0030202EAE4
:100330005703034404F01C020F25D3F820C005FA2C
:1003400002FA0D692CEA0A0C05FA02F242EA0C02E2
:100350001A62D1F804C002680CF0030302EA0E022C
:1003600003FA09F31A435FEACC034FF00109026074
:100370009CD541F26003C4F202031A6840F2004EB9
:1003800042F001021A601A68C4F2010E02F0010282
:100390000192019A27F003024FF6084A7244CFF601
:1003A000FF7A52F80AC004F00C050F23AB402CEA88
:1003B000030C009B03FA05F545EA0C0342F80A30EA
:1003C000DEF800C04B684CEA0805DA0358BF2CEA97
:1003D0000805CEF80050DEF804C09A034CEA080580
:1003E00058BF2CEA0805CEF80450DEF808C0DA023F
:1003F0004CEA080558BF2CEA080540F20C4CCEF830
:100400000850C4F2010CDCF800209B0242EA080507
:1004100058BF22EA0805CCF8005047E70322B24053
:100420006FEA020EB14674E702B0BDE8F04F7047C4
:100430000069084018BF0120704700004269282366
:100440000A4208BF1823C150704700001823002A31
:1004500008BF2823C150704740F21800C2F20000C4
:100460000068704740F2000040F21801C2F200003C
:10047000C2F2000140680A6810440860704700003A
:1004800080B5032000F080F8002000F009F8002873
:100490001CBF012080BD00F029F8002080BD0000B5
:1004A00070B540F20006C2F200067168E1B1044680
:1004B00040F20C00C2F200004FF47A720068B2FB06
:1004C000F1F1B0FBF1F000F0F7FC0F2C4FF001055B
:1004D00008D838B94FF0FF3021460022002500F03F
:1004E00027F83460284670BD012070BD82B041F20B
:1004F0005800C4F20200816841F001018160816806
:1005000001F0010101910199016841F08051016000
:10051000006800F080500090009847F20800C4F294
:100520000000016841F48041016002B070470000A2
:1005300010B54EF60C5CCEF2000CDCF80030C3F3C4
:10054000022E8EF00704042C28BF0424BEF10303FE
:100550004FF0FF3E0EFA04F438BF0023A143994048
:100560000EFA03F39A43114300F00F0200F16043C7
:100570000901043A03F564436244002848BF02F1CC
:100580000C03197010BD00004EF60C51CEF20001A4
:100590000A684FF6FF031A4060F30A2242F08060B7
:1005A00040F0FD7008607047B0F5007F42D0002831
:1005B00040F0808047F21400C4F2000050F8141C90
:1005C000C26E01F4C06122F48072B1F5806FC26620
:1005D0002ED150F8141C012262F34A2140F8141C59
:1005E00040F20C01C2F200010968322251434DF67B
:1005F0008362C4F21B32A1FB0212910C0268520505
:1006000011D54A1C0FD0026852050CD559B10268A9
:10061000520508D5012906D00268520503D50229E2
:10062000A1F10401EAD10068400544BF03207047EE
:100630000020704747F21400C4F2000050F8141C68
:10064000C26E01F4C06142F48072B1F5806FC2667F
:10065000EED150F8141C012262F34A2140F8141C18
:1006600040F20C01C2F200010968322251434DF6FA
:100670008362C4F21B32A1FB0212910C0268520584
:1006800011D54A1C0FD0026852050CD559B1026829
:10069000520508D5012906D00268520503D5022962
:1006A000A1F10401EAD10068400544BF032070476E
:1006B000BEE700BF47F21400C4F2000050F8141C5B
:1006C000022262F34A2140F8141C00207047000007
:1006D0002DE9F047002865D042F2000AC4F2020A70
:1006E0000446DAF800000D4600F00F0088420CD2F4
:1006F000DAF8000020F00F002843CAF80000DAF80A
:10070000000000F00F00A8424CD1216841F2080817
:10071000C807C4F2020803D1880740F1D480B9E0C9
:10072000606802283AD0032840D158F8082C92017A
:1007300038D5D8F80420D8F8043042F20046C3F384
:10074000031302F00302D8F804700133C0F2F40678
:10075000032A04BF43F20066C0F26E16B6FBF3F242
:10076000D8F80430C7F306277A43C3F3416302275E
:1007700007EB4303B2FBF3F24BF20043C0F2C44376
:100780009A425DD9D8F8002012F0F00F4DD08907B9
:1007900056D5A168002953D147E000BF58F8081C7E
:1007A000890307D40120BDE8F08700BF58F8081C72
:1007B0004905F7D5D8F8001001F00C0104293FD005
:1007C000D8F8001001F00C01082939D0D8F8001031
:1007D00001F00C010C2933D1D8F80410D8F804200A
:1007E00042F20047C2F3031201F00301D8F80430CB
:1007F0000132C0F2F407032904BF43F20067C0F2DC
:100800006E17B7FBF2F1D8F80420C3F3062359435F
:10081000C2F34162022303EB4202B1FBF2F14BF25D
:100820000042C0F2C44291420AD9D8F8001008220E
:1008300062F307114FF00109C8F8001002E000BF91
:100840004FF00009D8F8001021F003010843C8F860
:100850000000FFF701FE064641F28837D8F8000095
:10086000616800F00C00B0EB810F07D0FFF7F4FDDA
:10087000801BB842F2D90320BDE8F08721688807C1
:1008800008D4B9F1000F1ED0D8F8000020F0F00015
:1008900017E000BF480705D5D8F8000040F4E06035
:1008A000C8F80000080706D5D8F80000072262F350
:1008B0000D20C8F80000D8F80000A26820F0F00071
:1008C0001043C8F80000DAF8000000F00F00A8425A
:1008D0001BD9DAF8000020F00F002843CAF8000006
:1008E000FFF7BAFD064641F2883700BFDAF800008C
:1008F00000F00F00A84207D0FFF7AEFD801BB84202
:10090000F4D90320BDE8F0872168480707D5D8F857
:100910000000E26820F4E0601043C8F80000080717
:1009200008D5D8F80000216920F4605040EAC100E1
:10093000C8F80000D8F8000042F20041C0F2F4010B
:1009400000F00C00042808462DD0D8F8000000F074
:100950000C00082843F20060C0F26E1023D0D8F8D3
:10096000002002F00C020C2A1CD1D8F80420D8F880
:10097000043002F00302C3F30313D8F80470013308
:10098000032A08BF0146B1FBF3F0D8F80410C7F3FF
:100990000627C1F341610222784302EB4101B0FB1B
:1009A000F1F000E00020D8F8001043F6CA22C1F3AD
:1009B0000311C0F60002515C40F20C0201F01F016D
:1009C00020FA01F140F20000C2F200000068C2F219
:1009D00000021160BDE8F047FFF762BD002804BFC8
:1009E000012070472DE9F04182B00446007841F2C1
:1009F0000006C007C4F202061ED1207880073DD44D
:100A00002078000764D42078400700F187802078A0
:100A1000800600F1D980E069002800F0C581B16846
:100A200001F00C010C2940F03181012840F0848153
:100A3000012002B0BDE8F081B06800F00C01F06860
:100A4000082961D0032281F00C0122EA0000084449
:100A5000B0FA80F0400957D16068B0F5803F07D008
:100A6000B0F5A02F40F0E480306840F48020306082
:100A7000306840F480303060E5E000BFB068F16875
:100A800000F00C00042871D001F0030180F00C008C
:100A900081F002010844B0FA80F0400966D1E168B3
:100AA0003068002900F0E08040F480703060FFF78B
:100AB000D3FC05463068400500F1FE80FFF7CCFC12
:100AC000401B0228F6D9032002B0BDE8F08100BF28
:100AD0006169D6F89400002900F0948040F001008C
:100AE000C6F89400FFF7B8FC054600BFD6F894009E
:100AF00080073FF588AFFFF7AFFC401B0228F5D910
:100B0000032002B0BDE8F081306880037FF575AF47
:100B1000606800287FF471AF3EE000BFB06D5FEA0F
:100B2000C00808D4B06D40F08050B065B06D00F0E2
:100B300080500190019847F20007C4F2000738681E
:100B4000C0052DD4386840F480703860FFF784FC0D
:100B5000054600BF3868C00522D4FFF77DFC401B66
:100B60000228F7D9032002B0BDE8F08130684005C3
:100B700001D5E06880B17068216920F0FE4040EA4C
:100B80000160706040F20000C2F200000068FFF7F0
:100B900087FC00283FF434AF012002B0BDE8F081AB
:100BA000A068012808D0052840F0A480D6F890005D
:100BB00040F00400C6F89000D6F8900040F0010024
:100BC000C6F89000A4E000BFA169D6F898000029FB
:100BD00000F07A8040F00100C6F89800FFF73CFC76
:100BE000054600BFD6F8980080073FF514AFFFF721
:100BF00033FC401B02284FF00300F3D902B0BDE8DC
:100C0000F08100BF20F00100C6F89400FFF724FC3B
:100C1000054600BFD6F8940080077FF5F4AEFFF7D5
:100C20001BFC401B0228F5D9032002B0BDE8F0816F
:100C30003168002821F480313160316821F480214D
:100C4000316000F0CF80FFF707FC05463068800375
:100C50003FF5D3AEFFF700FC401B6428F6D9032014
:100C600002B0BDE8F08100BF20F480703060FFF773
:100C7000F3FB0546306840057FF5C2AEFFF7ECFB9D
:100C8000401B02284FF00300F4D9B7E7316802286F
:100C900021F08071316040F08B80FFF7DDFB05466D
:100CA0003068800140F1CA80FFF7D6FB401B022864
:100CB0004FF00300F4D9A1E77068216920F0FE40ED
:100CC00040EA016070609BE620F00100C6F89800E1
:100CD000FFF7C2FB054600BFD6F8980080077FF5F6
:100CE0009AAEFFF7B9FB401B02284FF00300F3D97F
:100CF00084E700BFD6F89010002821F00101C6F863
:100D00009010D6F8901021F00401C6F8901079D018
:100D1000FFF7A2FB054641F2883700BFD6F89000E6
:100D2000800700F18180FFF797FB401BB842F5D99F
:100D3000032002B0BDE8F081F068216A00F00302F0
:100D40008A427FF429AF626A6FF00F0300F0F0016E
:100D500003EB021291427FF41FAFA16A00F4FE423E
:100D6000B2EB012F7FF418AFE16A00F07842B2EBEA
:100D7000C16F7FF411AF226B0023CFF6E07303EA5B
:100D8000025200F4C001A2F5001291427FF404AFB8
:100D9000616B4FF07E4202EA016100F0C06001F138
:100DA0007E4188427FF4F8AE002002B0BDE8F081B9
:100DB000F0684FF6FF7120F00300F060F068CFF6A6
:100DC000EE610840F060FFF747FB044630688001A1
:100DD000EAD5FFF741FB001B02284FF00300F5D9CD
:100DE0000CE700BFFFF738FB054600BF3068800303
:100DF0007FF503AEFFF730FB401B64284FF0030084
:100E0000F4D9FBE6FFF728FB054641F2883700BF1F
:100E1000D6F89000800707D5FFF71EFB401BB842AD
:100E20004FF00300F4D9E9E6B8F1000F3FF5EFAD5C
:100E3000B06D20F08050B065E9E500BFF06848F281
:100E40000C01C0F29F1104F1200700EA010C8ECFC3
:100E50006FF00F00D4E90C5400EB02100022CFF623
:100E6000E07241EA0C0102EA05520843A2F50012C1
:100E70004FF07E4540EA032005EA0465104305F182
:100E80007E4540EAC7602843F060306840F08070DB
:100E90003060F06840F08070F060FFF7DDFA0446E3
:100EA000306880013FF580AFFFF7D6FA001B0228BB
:100EB0004FF00300F4D9A1E6411E0020B0EB116F02
:100EC0001CBF012070474EF21002CEF200025160AA
:100ED0004EF62351CEF20001F0230B7007219060F3
:100EE00011607047FEE7000070B540F2004440F228
:100EF0001006C4F600040128C2F2000617D13078AB
:100F0000A8B9204601210125FFF792FA80B32046B7
:100F10000221FFF78DFA58B320460421FFF788FA23
:100F200030B34FF090400121FFF782FA00B3204622
:100F30000121FFF77DFA054620460221FFF778FAE6
:100F4000281AB0FA80F0450920460421FFF770FA0C
:100F5000401BB0FA80F044094FF090400121FFF7A8
:100F600067FAA04204BF002030700025284670BDFB
:100F70000A203570FFF768F920460121FFF758FA7B
:100F80000028F3D0204602210225FFF751FA00285D
:100F9000ECD020460421FFF74BFA48B14FF09040C7
:100FA0000121FFF745FA0028DFD1042070BD00BF02
:100FB000032070BD40F21841C4F600010A6942F4F2
:100FC00000720A610A6942F480720A610A6842F09A
:100FD00020020A602022C1F8FC230A6942F02002A4
:100FE0000A6100BF00BF00BF0A6842F020020A6029
:100FF0000A6842F480720A600022C1F8FC230B697F
:1010000043F020030B6100BF00BF00BF0B6843F03B
:1010100020030B600B6843F480730B600B6943F48F
:1010200000730B610B6943F480730B610B6843F031
:1010300020030B602123C1F8FC330B6943F020032C
:101040000B6100BF00BF00BF0B6843F020030B60C3
:101050000B6843F480730B60C1F8FC230A6942F00B
:1010600020020A6100BF00BF00BF0A6842F02002F0
:101070000A600A6842F480720A600A6942F40072E7
:101080000A610A6942F480720A610A6842F0200229
:101090000A602222C1F8FC230A6942F020020A6198
:1010A00000BF00BF00BF0A6842F020020A600A6861
:1010B00042F480720A6000BF00BF00BF0A6842F4B9
:1010C00000720A604FF496320B69053A43F40073DC
:1010D0000B610B6843F480730B600B6843F02003D3
:1010E0000B60C1F8FC030B6943F020030B6100BFE8
:1010F00000BF00BF0B6843F020030B600B6843F494
:1011000080730B6000BF00BF00BF0B6843F4007327
:101110000B600B6943F400730B610B6843F480733D
:101120000B600B6843F020030B60C1F8FC030B69F4
:1011300043F020030B6100BF00BF00BF0B6843F00A
:1011400020030B600B6843F480730B6000BF00BF8B
:1011500000BF0B6843F400730B600B6943F400732A
:101160000B610B6843F480730B600B6843F0200342
:101170000B60C1F8FC030B6943F020030B6100BF57
:1011800000BF00BF0B6843F020030B600B6843F403
:1011900080730B6000BF00BF00BF0B6843F4007397
:1011A0000B600B6943F400730B610B6843F48073AD
:1011B0000B600B6843F020030B60C1F8FC030B6964
:1011C00043F020030B6100BF00BF00BF0B6843F07A
:1011D00020030B600B6843F480730B6000BF00BFFB
:1011E00000BF0B6843F400730B600B6943F400739A
:1011F0000B610B6843F480730B600B6843F02003B2
:101200000B60C1F8FC030B6943F020030B6100BFC6
:1012100000BF00BF0B6843F020030B600B6843F472
:1012200080730B6000BF00BF00BF0B6843F4007306
:101230000B607FF449AF70470A78002A08BF7047F7
:101240002DE9F04143F6DA2804464D1C002740F210
:101250003F16C0F6000800BFA2F12000C1B249004D
:1012600051FA80F008EB0012B1B2204600F00AF803
:10127000EA5D22B1103E132F07F10107ECD3BDE860
:10128000F04170472DE9F04740F21843C4F60003DF
:101290001F694FF0200C47F400771F611F694FF062
:1012A000210E47F480771F611F6840F2080947F05C
:1012B00020071F60C3F8FCC31F6940F2120A47F001
:1012C00020071F6100BF00BF00BF1F684FF022084A
:1012D00047F020071F601F68C2F2000947F48077BB
:1012E0001F60C3F8FC031F69C2F2000A47F0200721
:1012F0001F6100BF00BF00BF1F6847F020071F60CD
:101300001F6847F480771F601F6947F400771F61EB
:101310001F6947F480771F611F6847F020071F602F
:10132000C3F8FCE31C6944F020041C6100BF00BF4B
:1013300000BF1C6844F020041C601C6844F48074E6
:101340001C60C3F8FC131C6944F020041C6100BF3E
:1013500000BF00BF1C6844F020041C601C6844F4FB
:1013600080741C60002400BF1D6945F400751D6178
:101370001D6945F480751D611D6845F020051D60DF
:10138000C3F8FC831D6945F020051D6100BF00BF47
:1013900000BF1D6845F020051D601D6845F480757F
:1013A0001D6000BF00BF00BF1D6845F400751D60D3
:1013B000002500BF32F81460EE40F607564608BF1D
:1013C0004E4636881F6947F400771F611F6847F44F
:1013D00080771F601F6847F020071F60C3F8FC6319
:1013E0001E696F1C46F020061E6100BF00BF00BFD3
:1013F0001E6846F020061E601E6846F480761E6059
:1014000000BF00BF00BF1E6846F400761E6032F8C1
:101410001460FE40F607564608BF4E4636881F69E0
:1014200047F400771F611F6847F480771F601F68CB
:1014300047F020071F60C3F8FC631E69AF1C46F02D
:1014400020061E6100BF00BF00BF1E6846F02006D8
:101450001E601E6846F480761E6000BF00BF00BF9D
:101460001E6846F400761E6032F81460FE40F607EF
:10147000564608BF4E4636881F6947F400771F61FD
:101480001F6847F480771F601F6847F020071F60C0
:10149000C3F8FC631E69EF1C46F020061E6100BF06
:1014A00000BF00BF1E68043546F020061E601E689F
:1014B00046F480761E6000BF00BF00BF1E6846F481
:1014C00000761E6032F81460FE40F607564608BFEC
:1014D0004E4636881F69102D47F400771F611F683C
:1014E00047F480771F601F6847F020071F60C3F82C
:1014F000FC631E6946F020061E6100BF00BF00BFEE
:101500001E6846F020061E601E6846F480761E6047
:1015100000BF00BF00BF1E6846F400761E607FF467
:1015200049AF1D69013045F400751D611D69013425
:1015300045F480751D611D68182C45F020051D605F
:10154000C3F8FCC31D6945F020051D6100BF00BF45
:1015500000BF1D6845F020051D601D6845F48075BD
:101560001D60C5B2C3F8FC531D6945F020051D611F
:1015700000BF00BF00BF1D6845F020051D601D684D
:1015800045F480751D601D6945F400751D611D6978
:1015900045F480751D611D6845F020051D60C3F888
:1015A000FCE31D6945F020051D6100BF00BF00BFC1
:1015B0001D6845F020051D601D6845F480751D609F
:1015C000C3F8FC131D6945F020051D6100BF00BF75
:1015D00000BF1D6845F020051D601D6845F480753D
:1015E0001D6008BFBDE8F087BEE600002DE9F04FA2
:1015F0008BB0002641F24C000596C4F2020001684F
:1016000040F2184541F0040101600168C4F600058C
:1016100001F0040106910699016801AC41F0010155
:101620000160016840F6140901F001010691069974
:101630000168C4F6000941F002010160006821461A
:1016400000F00200069006984FF4487001900120C7
:101650000290A5F118000127CDE90366FEF708FE08
:101660004FF48070CDE901074FF090402146CDE95D
:101670000366FEF7FDFD4FF6FF7005F57A740690E0
:101680004FF0030806A920460A964FF6FF7B0797FE
:10169000CDE90868FEF7ECFD4FF6004ACFF6FF7A79
:1016A00055F80A0006A940F4807045F80A00286839
:1016B0004FF6FF7740F408702860286940F4007006
:1016C0002861286940F480702861286840F0200073
:1016D0002860C9F80060286940F02000286100BF38
:1016E00000BF00BF286840F020002860286840F450
:1016F0008070286020460A96CDF818B0CDF8248076
:10170000CDE90766FEF7B4FD4FF6104BCFF6FF7B31
:1017100055F80B0007A940F4807045F80B0000BF96
:1017200000BF00BFD5F8F89355F80A0040F4807068
:1017300045F80A00012081E8410106A920460A96E1
:101740000697FEF795FD286848F2302140F40070B6
:10175000286040F21400C2F20000A0F80090008857
:10176000884203D100F078F802E000BF00F0E8FD05
:101770002869002640F40070286128694FF6FF7838
:1017800040F48070286128684FF0030940F0200081
:10179000286040F61400C4F600000660286906A917
:1017A00040F02000286100BF00BF00BF286840F063
:1017B00020002860286840F48070286020460A963F
:1017C000CDE90686CDE90869FEF752FD55F80B0014
:1017D00007A940F4807045F80B0000BF00BF00BFB0
:1017E000D5F8F87355F80A0040F4807045F80A00FF
:1017F000012081E8410206A920460A96CDF818800A
:10180000FEF736FD286840F40070286040F21400AE
:10181000C2F2000007800BB0BDE8F08F81B0ADF8D8
:101820000200BDF8020040F20801C2F20001088087
:1018300001B0704781B0ADF80200BDF8020040F27F
:101840001201C2F20001088001B07047FEE70000FB
:10185000704700007047000040F21840C4F60000D6
:101860000169002241F40071016101694FF0030C2C
:1018700041F480710161016841F020010160C0F80C
:10188000FC23016941F02001016100BF00BF00BFDE
:10189000016841F020010160016841F4807101603C
:1018A0000121C0F8FC13036943F02003036100BF6A
:1018B00000BF00BF036843F020030360036843F4E4
:1018C00080730360036943F400730361036943F4A5
:1018D00080730361036843F020030360C0F8FC13C6
:1018E000036943F02003036100BF00BF00BF03682A
:1018F00043F020030360036843F480730360C0F87F
:10190000FC23026942F02002026100BF00BF00BF59
:10191000026842F020020260026842F480720260B3
:10192000026942F400720261026942F4807202614B
:10193000026842F0200202601022C0F8FC23026913
:1019400042F02002026100BF00BF00BF026842F007
:1019500020020260026842F48072026041F29072DA
:10196000C0F8FC23026942F02002026100BF00BF00
:1019700000BF026842F020020260026842F48072F6
:101980000260026942F400720261026942F48072EC
:101990000261026842F0200202606022C0F8FC236B
:1019A000026942F02002026100BF00BF00BF02686E
:1019B00042F020020260026842F4807202604FF43A
:1019C0001C52C0F8FC23026942F02002026100BFF1
:1019D00000BF00BF026842F020020260026842F4C9
:1019E00080720260026942F400720261026942F48C
:1019F00080720261026842F0200202606122C0F837
:101A0000FC23026942F02002026100BF00BF00BF58
:101A1000026842F020020260026842F480720260B2
:101A2000C0F8FC13016941F02001016100BF00BF53
:101A300000BF016841F020010160016841F480713C
:101A40000160016941F400710161016941F4807133
:101A50000161016841F0200101604621C0F8FC13DA
:101A6000016941F02001016100BF00BF00BF0168B2
:101A700041F020010160016841F4807101600221A0
:101A8000C0F8FC13026942F02002026100BF00BFEF
:101A900000BF026842F020020260026842F48072D5
:101AA0000260026942F400720261026942F48072CB
:101AB0000261026842F0200202601322C0F8FC2397
:101AC000026942F02002026100BF00BF00BF02684D
:101AD00042F020020260026842F48072026048F222
:101AE0001002C0F8FC23026942F02002026100BF2C
:101AF00000BF00BF026842F020020260026842F4A8
:101B000080720260026942F400720261026942F46A
:101B100080720261026842F0200202601222C0F864
:101B2000FC23026942F02002026100BF00BF00BF37
:101B3000026842F020020260026842F48072026091
:101B400048F2FE02C0F8FC23026942F02002026162
:101B500000BF00BF00BF026842F0200202600268BE
:101B600042F480720260026942F40072026102690A
:101B700042F480720261026842F020020260C0F802
:101B8000FC13016941F02001016100BF00BF00BFEB
:101B9000016841F020010160016841F48071016039
:101BA0004FF4A061C0F8FC13016941F0200101610C
:101BB00000BF00BF00BF016841F020010160016863
:101BC00041F480710160016941F4007101610169B2
:101BD00041F480710161016841F020010160C0F8A9
:101BE000FCC3026942F02002026100BF00BF00BFD7
:101BF000026842F020020260026842F480720260D1
:101C000041F23002C0F8FC23026942F02002026176
:101C100000BF00BF00BF026842F0200202600268FD
:101C200042F480720260026942F400720261026949
:101C300042F480720261026842F0200202603022A7
:101C4000C0F8FC23026942F02002026100BF00BF1D
:101C500000BF026842F020020260026842F4807213
:101C6000026040F20332C0F8FC23036943F0200312
:101C7000036100BF00BF00BF036843F0200303609F
:101C8000036843F480730360036943F400730361E2
:101C9000036943F480730361036843F02003036026
:101CA0003123C0F8FC33036943F02003036100BF14
:101CB00000BF00BF036843F020030360036843F4E0
:101CC00080730360C0F8FC23036943F020030361C1
:101CD00000BF00BF00BF036843F020030360036838
:101CE00043F480730360036943F400730361036981
:101CF00043F480730361036843F0200303603223DD
:101D0000C0F8FC33036943F02003036100BF00BF48
:101D100000BF036843F020030360036843F480734B
:101D20000360C0F8FC23036943F02003036100BF94
:101D300000BF00BF036843F020030360036843F45F
:101D400080730360036943F400730361036943F420
:101D500080730361036843F0200303603323C0F8FA
:101D6000FC33036943F02003036100BF00BF00BFE1
:101D7000036843F020030360036843F48073036047
:101D80004FF44073C0F8FC33016941F02001016158
:101D900000BF00BF00BF016841F020010160016881
:101DA00041F480710160016941F4007101610169D0
:101DB00041F480710161016841F02001016034212A
:101DC000C0F8FC13016941F02001016100BF00BFB0
:101DD00000BF016841F020010160016841F4807199
:101DE0000160C0F8FCC3016941F02001016100BF3E
:101DF00000BF00BF016841F020010160016841F4AB
:101E000080710160016941F400710161016941F46F
:101E100080710161016841F0200101603521C0F845
:101E2000FC13016941F02001016100BF00BF00BF48
:101E3000016841F020010160016841F48071016096
:101E4000C0F8FC23016941F02001016100BF00BF1F
:101E500000BF016841F020010160016841F4807118
:101E60000160016941F400710161016941F480710F
:101E70000161016841F0200101603621C0F8FC13C6
:101E8000016941F02001016100BF00BF00BF01688E
:101E900041F020010160016841F48071016014216A
:101EA000C0F8FC13016941F02001016100BF00BFCF
:101EB00000BF016841F020010160016841F48071B8
:101EC0000160016941F400710161016941F48071AF
:101ED0000161016841F0200101603721C0F8FC1365
:101EE000016941F02001016100BF00BF00BF01682E
:101EF00041F020010160016841F480710160C0F887
:101F0000FC23016941F02001016100BF00BF00BF57
:101F1000016841F020010160016841F480710160B5
:101F2000016941F400710161016941F4807101614D
:101F3000016841F0200101603821C0F8FC130169FB
:101F400041F02001016100BF00BF00BF016841F006
:101F500020010160016841F480710160C0F8FC2338
:101F6000016941F02001016100BF00BF00BF0168AD
:101F700041F020010160016841F480710160016954
:101F800041F400710161016941F4807101610168EE
:101F900041F0200101603921C0F8FC13016941F0D2
:101FA0002001016100BF00BF00BF016841F02001B6
:101FB0000160016841F480710160C0F8FC2301698F
:101FC00041F02001016100BF00BF00BF016841F086
:101FD00020010160016841F480710160016941F4F0
:101FE00000710161016941F480710161016841F092
:101FF000200101603A21C0F8FC13016941F0200181
:10200000016100BF00BF00BF016841F02001016015
:10201000016841F480710160C0F8FC33016941F04E
:102020002001016100BF00BF00BF016841F0200135
:102030000160016841F480710160016941F400713F
:102040000161016941F480710161016841F0200181
:1020500001603B21C0F8FC13016941F020010161DE
:1020600000BF00BF00BF016841F0200101600168AE
:1020700041F480710160C0F8FCC3016941F02001A6
:10208000016100BF00BF00BF016841F02001016095
:10209000016841F480710160016941F400710161DE
:1020A000016941F480710161016841F02001016022
:1020B0003C21C0F8FC13016941F02001016100BF1F
:1020C00000BF00BF016841F020010160016841F4D8
:1020D00080710160C0F8FC23016941F020010161B9
:1020E00000BF00BF00BF016841F02001016001682E
:1020F00041F480710160016941F40071016101697D
:1021000041F480710161016841F0200101603D21CD
:10211000C0F8FC13016941F02001016100BF00BF5C
:1021200000BF016841F020010160016841F4807145
:1021300001604FF4A051C0F8FC13016941F0200187
:10214000016100BF00BF00BF016841F020010160D4
:10215000016841F480710160016941F4007101611D
:10216000016941F480710161016841F02001016061
:102170009221C0F8FC13016941F02001016100BF08
:1021800000BF00BF016841F020010160016841F417
:10219000807101604FF40071C0F8FC13016941F0D7
:1021A0002001016100BF00BF00BF016841F02001B4
:1021B0000160016841F480710160016941F40071BE
:1021C0000161016941F480710161016841F0200100
:1021D00001609321C0F8FC13016941F02001016105
:1021E00000BF00BF00BF016841F02001016001682D
:1021F00041F480710160C0F8FC23016941F02001C5
:10220000016100BF00BF00BF016841F02001016013
:10221000016841F480710160016941F4007101615C
:10222000016941F480710161016841F020010160A0
:102230009021C0F8FC13016941F02001016100BF49
:1022400000BF00BF016841F020010160016841F456
:102250008071016040F60D01C0F8FC13016941F086
:102260002001016100BF00BF00BF016841F02001F3
:102270000160016841F480710160016941F40071FD
:102280000161016941F480710161016841F020013F
:102290000160C0F8FCC3016941F02001016100BF89
:1022A00000BF00BF016841F020010160016841F4F6
:1022B0008071016041F21801C0F8FC13016941F01E
:1022C0002001016100BF00BF00BF016841F0200193
:1022D0000160016841F480710160016941F400719D
:1022E0000161016941F480710161016841F02001DF
:1022F00001600721C0F8FC13016941F02001016170
:1023000000BF00BF00BF016841F02001016001680B
:1023100041F48071016040F27311C0F8FC1301694F
:1023200041F02001016100BF00BF00BF016841F022
:1023300020010160016841F4807101607047000074
:102340002DE9F04F81B040F21844C4F60004206932
:102350004FF0120940F4007020612069002540F41C
:10236000807020612068112640F020002060E3206A
:10237000C4F8FC0320694FF0130B40F020002061EB
:1023800000BF00BF00BF2068102740F02000206081
:1023900020684FF0070840F48070206043F2080086
:1023A000C4F8FC03206940F02000206100BF00BF9A
:1023B00000BF206840F020002060206840F480705A
:1023C0002060206940F400702061206940F4807032
:1023D0002061206840F020002060E720C4F8FC0362
:1023E000206940F02000206100BF00BF00BF2068CE
:1023F00040F020002060206840F480702060C4F825
:10240000FC93206940F02000206100BF00BF00BFA6
:10241000206840F020002060206840F48070206038
:10242000206940F400702061206940F480702061D0
:10243000206840F020002060EF20C4F8FC032069F1
:1024400040F02000206100BF00BF00BF206840F0C6
:1024500020002060206840F48070206041F231202C
:10246000C4F8FC03206940F02000206100BF00BFD9
:1024700000BF206840F020002060206840F4807099
:102480002060206940F400702061206940F4807071
:102490002061206840F0200020600120C4F8FC0387
:1024A000206940F02000206100BF00BF00BF20680D
:1024B00040F020002060206840F480702060C4F864
:1024C000FC53206940F02000206100BF00BF00BF26
:1024D000206840F020002060206840F48070206078
:1024E000206940F400702061206940F48070206110
:1024F000206840F0200020600220C4F8FC0320691E
:1025000040F02000206100BF00BF00BF206840F005
:1025100020002060206840F4807020604FF4E0606C
:10252000C4F8FC03206940F02000206100BF00BF18
:1025300000BF206840F020002060206840F48070D8
:102540002060206940F400702061206940F48070B0
:102550002061206840F0200020600320C4F8FC03C4
:10256000206940F02000206100BF00BF00BF20684C
:1025700040F020002060206840F48070206041F22C
:102580003000C4F8FC03206940F02000206100BF47
:1025900000BF00BF206840F020002060206840F4A9
:1025A00080702060206940F400702061206940F450
:1025B00080702061206840F0200020600420C4F872
:1025C000FC03206940F02000206100BF00BF00BF75
:1025D000206840F020002060206840F48070206077
:1025E000C4F8FC53206940F02000206100BF00BF08
:1025F00000BF206840F020002060206840F4807018
:102600002060206940F400702061206940F48070EF
:102610002061206840F0200020600820C4F8FC03FE
:10262000206940F02000206100BF00BF00BF20688B
:1026300040F020002060206840F48070206040F26C
:102640000720C4F8FC03206940F02000206100BF8F
:1026500000BF00BF206840F020002060206840F4E8
:1026600080702060206940F400702061206940F48F
:1026700080702061206840F0200020600920C4F8AC
:10268000FC03206940F02000206100BF00BF00BFB4
:10269000206840F020002060206840F480702060B6
:1026A000C4F8FC53206940F02000206100BF00BF47
:1026B00000BF206840F020002060206840F4807057
:1026C0002060206940F400702061206940F480702F
:1026D0002061206840F0200020600A20C4F8FC033C
:1026E000206940F02000206100BF00BF00BF2068CB
:1026F00040F020002060206840F480702060C4F822
:10270000FC53206940F02000206100BF00BF00BFE3
:10271000206840F020002060206840F48070206035
:10272000206940F400702061206940F480702061CD
:10273000206840F0200020600C20C4F8FC032069D1
:1027400040F02000206100BF00BF00BF206840F0C3
:1027500020002060206840F480702060C4F8FC53A2
:10276000206940F02000206100BF00BF00BF20684A
:1027700040F020002060206840F4807020602069D4
:1027800040F400702061206940F48070206120686E
:1027900040F0200020600D20C4F8FC03206940F0C8
:1027A0002000206100BF00BF00BF206840F0200073
:1027B0002060206840F480702060C4F8FC532069D9
:1027C00040F02000206100BF00BF00BF206840F043
:1027D00020002060206840F480702060206940F470
:1027E00000702061206940F480702061206840F012
:1027F000200020600F20C4F8FC03206940F0200076
:10280000206100BF00BF00BF206840F020002060B2
:10281000206840F480702060C4F8FC53206940F0C8
:102820002000206100BF00BF00BF206840F02000F2
:102830002060206840F480702060206940F40070BF
:102840002061206940F480702061206840F0200001
:1028500020601020C4F8FC03206940F020002061B3
:1028600000BF00BF00BF206840F02000206020684B
:1028700040F480702060C4F8FC53206940F02000D0
:10288000206100BF00BF00BF206840F02000206032
:10289000206840F480702060206940F4007020615E
:1028A000206940F480702061206840F020002060A2
:1028B000C4F8FC63206940F02000206100BF00BF25
:1028C00000BF206840F020002060206840F4807045
:1028D00020600720C4F8FC03206940F0200020613C
:1028E00000BF00BF00BF206840F0200020602068CB
:1028F00040F480702060206940F4007020612069FD
:1029000040F480702061206840F020002060C4F80E
:10291000FC93206940F02000206100BF00BF00BF91
:10292000206840F020002060206840F48070206023
:10293000C4F8FC53206940F02000206100BF00BFB4
:1029400000BF206840F020002060206840F48070C4
:102950002060206940F400702061206940F480709C
:102960002061206840F020002060C4F8FCB320699A
:1029700040F02000206100BF00BF00BF206840F091
:1029800020002060206840F480702060C4F8FC5370
:10299000206940F02000206100BF00BF00BF206818
:1029A00040F020002060206840F480702060C82043
:1029B000FDF74AFC20694FF0320A40F400702061B4
:1029C000206940F480702061206840F02000206081
:1029D000C4F8FC732069102740F02000206100BF7C
:1029E00000BF00BF206840F020002060206840F455
:1029F0008070206041F29060C4F8FC03206940F0D0
:102A00002000206100BF00BF00BF206840F0200010
:102A10002060206840F480702060206940F40070DD
:102A20002061206940F480702061206840F020001F
:102A30002060C4F8FC63206940F02000206100BFE2
:102A400000BF00BF206840F020002060206840F4F4
:102A50008070206040F22720C4F8FC03206940F019
:102A60002000206100BF00BF00BF206840F02000B0
:102A70002060206840F4807020603220FDF7E4FB85
:102A8000206940F400702061206940F4807020616A
:102A9000206840F020002060C4F8FC93206940F0DA
:102AA0002000206100BF00BF00BF206840F0200070
:102AB0002060206840F4807020601D20C4F8FC0372
:102AC000206940F02000206100BF00BF00BF2068E7
:102AD00040F020002060206840F4807020603220A8
:102AE000FDF7B2FB206940F400702061206940F4DA
:102AF00080702061206840F020002060C4F8FCB3A2
:102B0000206940F02000206100BF00BF00BF2068A6
:102B100040F020002060206840F4807020604FF476
:102B20000060C4F8FC03206940F02000206100BF71
:102B300000BF00BF206840F020002060206840F403
:102B400080702060206940F400702061206940F4AA
:102B500080702061206840F0200020602920C4F8A7
:102B6000FC03206940F02000206100BF00BF00BFCF
:102B7000206840F020002060206840F480702060D1
:102B80001420C4F8FC03206940F02000206100BF3D
:102B900000BF00BF206840F020002060206840F4A3
:102BA00080702060206940F400702061206940F44A
:102BB00080702061206840F0200020602B20C4F845
:102BC000FC03206940F02000206100BF00BF00BF6F
:102BD000206840F020002060206840F48070206071
:102BE0000B20C4F8FC03206940F02000206100BFE6
:102BF00000BF00BF206840F020002060206840F443
:102C0000807020603220FDF71FFB2069032140F413
:102C1000007020612069072240F4807020612068E4
:102C200040F0200020602020C4F8FC03206940F020
:102C30002000206100BF00BF00BF206840F02000DE
:102C40002060206840F480702060C4F8FC53206944
:102C500040F02000206100BF00BF00BF206840F0AE
:102C600020002060206840F480702060206940F4DB
:102C700000702061206940F480702061206840F07D
:102C8000200020602120C4F8FC03206940F02000CF
:102C9000206100BF00BF00BF206840F0200020601E
:102CA000206840F480702060C4F8FC53206940F034
:102CB0002000206100BF00BF00BF206840F020005E
:102CC0002060206840F480702060206940F400702B
:102CD0002061206940F480702061206840F020006D
:102CE00020603020C4F8FC03206940F020002061FF
:102CF00000BF00BF00BF206840F0200020602068B7
:102D000040F480702060C4F8FC83206940F020000B
:102D1000206100BF00BF00BF206840F0200020609D
:102D2000206840F480702060206940F400702061C9
:102D3000206940F480702061206840F0200020600D
:102D40003120C4F8FC03206940F02000206100BF5E
:102D500000BF00BF206840F020002060206840F4E1
:102D60008070206040F20770C4F8FC03206940F0D6
:102D70002000206100BF00BF00BF206840F020009D
:102D80002060206840F480702060206940F400706A
:102D90002061206940F480702061206840F02000AC
:102DA0002060C4F8FCA3206940F02000206100BF2F
:102DB00000BF00BF206840F020002060206840F481
:102DC000807020600620C4F8FC03206940F02000D9
:102DD000206100BF00BF00BF206840F020002060DD
:102DE000206840F480702060206940F40070206109
:102DF000206940F480702061206840F0200020604D
:102E00003520C4F8FC03206940F02000206100BF99
:102E100000BF00BF206840F020002060206840F420
:102E20008070206040F20470C4F8FC03206940F018
:102E30002000206100BF00BF00BF206840F02000DC
:102E40002060206840F480702060206940F40070A9
:102E50002061206940F480702061206840F02000EB
:102E600020603620C4F8FC03206940F02000206177
:102E700000BF00BF00BF206840F020002060206835
:102E800040F48070206041F60470C4F8FC032069AF
:102E900040F02000206100BF00BF00BF206840F06C
:102EA00020002060206840F480702060206940F499
:102EB00000702061206940F480702061206840F03B
:102EC000200020603720C4F8FC03206940F0200077
:102ED000206100BF00BF00BF206840F020002060DC
:102EE000206840F4807020600420C4F8FC0320694E
:102EF00040F02000206100BF00BF00BF206840F00C
:102F000020002060206840F480702060206940F438
:102F100000702061206940F480702061206840F0DA
:102F2000200020603820C4F8FC03206940F0200015
:102F3000206100BF00BF00BF206840F0200020607B
:102F4000206840F480702060C4F8FC53206940F091
:102F50002000206100BF00BF00BF206840F02000BB
:102F60002060206840F480702060206940F4007088
:102F70002061206940F480702061206840F02000CA
:102F800020603920C4F8FC03206940F02000206153
:102F900000BF00BF00BF206840F020002060206814
:102FA00040F48070206040F20670C4F8FC03206991
:102FB00040F02000206100BF00BF00BF206840F04B
:102FC00020002060206840F480702060206940F478
:102FD00000702061206940F480702061206840F01A
:102FE000200020603C20C4F8FC03206940F0200051
:102FF000206100BF00BF00BF206840F020002060BB
:10300000206840F48070206040F20170C4F8FC0336
:10301000206940F02000206100BF00BF00BF206891
:1030200040F020002060206840F48070206020691B
:1030300040F400702061206940F4807020612068B5
:1030400040F0200020603D20C4F8FC03206940F0DF
:103050002000206100BF00BF00BF206840F02000BA
:103060002060206840F4807020600F20C4F8FC03CA
:10307000206940F02000206100BF00BF00BF206831
:1030800040F020002060206840F4807020602069BB
:1030900040F400702061206940F480702061206855
:1030A00040F0200020605020C4F8FC03206940F06C
:1030B0002000206100BF00BF00BF206840F020005A
:1030C0002060206840F480702060C4F8FC532069C0
:1030D00040F02000206100BF00BF00BF206840F02A
:1030E00020002060206840F480702060206940F457
:1030F00000702061206940F480702061206840F0F9
:10310000200020605120C4F8FC03206940F020001A
:10311000206100BF00BF00BF206840F02000206099
:10312000206840F480702060EF20C4F8FC03206920
:1031300040F02000206100BF00BF00BF206840F0C9
:1031400020002060206840F480702060206940F4F6
:1031500000702061206940F480702061206840F098
:10316000200020605220C4F8FC03206940F02000B9
:10317000206100BF00BF00BF206840F02000206039
:10318000206840F480702060C4F8FC53206940F04F
:103190002000206100BF00BF00BF206840F0200079
:1031A0002060206840F480702060206940F4007046
:1031B0002061206940F480702061206840F0200088
:1031C00020605320C4F8FC03206940F020002061F7
:1031D00000BF00BF00BF206840F0200020602068D2
:1031E00040F48070206040F23F10C4F8FC03206976
:1031F00040F02000206100BF00BF00BF206840F009
:1032000020002060206840F480702060206940F435
:1032100000702061206940F480702061206840F0D7
:10322000200020606020C4F8FC03206940F02000EA
:10323000206100BF00BF00BF206840F02000206078
:10324000206840F4807020604FF41C50C4F8FC03E8
:10325000206940F02000206100BF00BF00BF20684F
:1032600040F020002060206840F4807020602069D9
:1032700040F400702061206940F480702061206873
:1032800040F0200020606120C4F8FC03206940F079
:103290002000206100BF00BF00BF206840F0200078
:1032A0002060206840F4807020600120C4F8FC0396
:1032B000206940F02000206100BF00BF00BF2068EF
:1032C00040F020002060206840F480702060206979
:1032D00040F400702061206940F480702061206813
:1032E00040F0200020606A20C4F8FC03206940F010
:1032F0002000206100BF00BF00BF206840F0200018
:103300002060206840F480702060C4F8FC5320697D
:1033100040F02000206100BF00BF00BF206840F0E7
:1033200020002060206840F480702060206940F414
:1033300000702061206940F480702061206840F0B6
:10334000200020608020C4F8FC03206940F02000A9
:10335000206100BF00BF00BF206840F02000206057
:10336000206840F480702060C4F8FC53206940F06D
:103370002000206100BF00BF00BF206840F0200097
:103380002060206840F480702060206940F4007064
:103390002061206940F480702061206840F02000A6
:1033A00020608120C4F8FC03206940F020002061E7
:1033B00000BF00BF00BF206840F0200020602068F0
:1033C00040F480702060C4F8FC53206940F0200075
:1033D000206100BF00BF00BF206840F020002060D7
:1033E000206840F480702060206940F40070206103
:1033F000206940F480702061206840F02000206047
:103400008220C4F8FC03206940F02000206100BF46
:1034100000BF00BF206840F020002060206840F41A
:1034200080702060C4F8FC53206940F020002061C7
:1034300000BF00BF00BF206840F02000206020686F
:1034400040F480702060206940F4007020612069A1
:1034500040F480702061206840F0200020608320CC
:10346000C4F8FC03206940F02000206100BF00BFC9
:1034700000BF206840F020002060206840F4807089
:103480002060C4F8FC53206940F02000206100BF98
:1034900000BF00BF206840F020002060206840F49A
:1034A00080702060206940F400702061206940F441
:1034B00080702061206840F0200020608420C4F8E3
:1034C000FC03206940F02000206100BF00BF00BF66
:1034D000206840F020002060206840F48070206068
:1034E000C4F8FC53206940F02000206100BF00BFF9
:1034F00000BF206840F020002060206840F4807009
:103500002060206940F400702061206940F48070E0
:103510002061206840F0200020608520C4F8FC0372
:10352000206940F02000206100BF00BF00BF20687C
:1035300040F020002060206840F480702060C4F8D3
:10354000FC53206940F02000206100BF00BF00BF95
:10355000206840F020002060206840F480702060E7
:10356000206940F400702061206940F4807020617F
:10357000206840F0200020609020C4F8FC032069FF
:1035800040F02000206100BF00BF00BF206840F075
:1035900020002060206840F480702060C4F8FC7334
:1035A000206940F02000206100BF00BF00BF2068FC
:1035B00040F020002060206840F480702060206986
:1035C00040F400702061206940F480702061206820
:1035D00040F0200020609220C4F8FC03206940F0F5
:1035E0002000206100BF00BF00BF206840F0200025
:1035F0002060206840F480702060C4F8FC5320698B
:1036000040F02000206100BF00BF00BF206840F0F4
:1036100020002060206840F480702060206940F421
:1036200000702061206940F480702061206840F0C3
:10363000200020609320C4F8FC03206940F02000A3
:10364000206100BF00BF00BF206840F02000206064
:10365000206840F480702060C4F8FC13206940F0BA
:103660002000206100BF00BF00BF206840F02000A4
:103670002060206840F480702060206940F4007071
:103680002061206940F480702061206840F02000B3
:1036900020609520C4F8FC03206940F020002061E0
:1036A00000BF00BF00BF206840F0200020602068FD
:1036B00040F4807020604FF48870C4F8FC032069E7
:1036C00040F02000206100BF00BF00BF206840F034
:1036D00020002060206840F480702060206940F461
:1036E00000702061206940F480702061206840F003
:1036F000200020609720C4F8FC03206940F02000DF
:10370000206100BF00BF00BF206840F020002060A3
:10371000206840F480702060C4F8FC53206940F0B9
:103720002000206100BF00BF00BF206840F02000E3
:103730002060206840F480702060206940F40070B0
:103740002061206940F480702061206840F02000F2
:1037500020609820C4F8FC03206940F0200020611C
:1037600000BF00BF00BF206840F02000206020683C
:1037700040F480702060C4F8FC53206940F02000C1
:10378000206100BF00BF00BF206840F02000206023
:10379000206840F480702060206940F4007020614F
:1037A000206940F480702061206840F02000206093
:1037B000C4F8FC13206940F02000206100BF00BF66
:1037C00000BF206840F020002060206840F4807036
:1037D000206041F21800C4F8FC03206940F020008A
:1037E000206100BF00BF00BF206840F020002060C3
:1037F000206840F480702060206940F400702061EF
:10380000206940F480702061206840F02000206032
:10381000C4F8FC23206940F02000206100BF00BFF5
:1038200000BF206840F020002060206840F48070D5
:10383000206040F27310C4F8FC03206940F02000BF
:10384000206100BF00BF00BF206840F02000206062
:10385000206840F48070206001B0BDE8F08F000067
:1038600070470000FCF7FEBD4EF68850CEF2000017
:10387000016841F4700101604FF0006140F8801C64
:1038800070470000FEE7000094B040F60004C4F664
:103890000004FCF7F5FD00274FF40070CDE90B772D
:1038A000CDE90977CDE90777FCF77EFE4FF480710B
:1038B0000991402102200A910A210690CDE90D00CC
:1038C0004FF00108CDE91010CDE9120006A8CDF89F
:1038D0003C80FDF783F80F2001900320CDE902071B
:1038E00001A80221CDE90477FCF7F2FE41F24C0079
:1038F0000A97C4F202000168012241F0040101604C
:10390000016801F0040101910199016841F0200171
:103910000160016801F0200101910199016841F005
:1039200008010160016801F0080101910199016835
:1039300041F002010160016801F002010191019969
:10394000016841F00101016000684FF47F4100F01F
:103950000100019001982046FCF778FD04F580668F
:103960003046042101224FF00409FCF76FFD4FF6A9
:10397000FE7006ADCDE9060820462946CDE9087758
:10398000FCF776FC30462946CDE90698CDE9087764
:10399000FCF76EFC40F20110CDE906074FF09040B5
:1039A00029460897FCF764FC40F22730CDE906076A
:1039B000A4F5806029460897FCF75AFCFDF716FE2F
:1039C0001F20FDF7F7FA1F20FDF728FF4FF6FF70C5
:1039D000FDF730FF44F6AA45C0F600050020294651
:1039E000FDF72AFC18202946FDF726FC1BA13020F4
:1039F000FDF722FC48202946FDF71EFC60202946E1
:103A0000FDF71AFC4FF6FF70FDF708FF1F20FDF7CA
:103A100011FF78202946FDF70FFC16A19020FDF735
:103A20000BFCA8202946FDF707FC18A1C020FDF7D4
:103A300003FCD8202946FDF7FFFB1AA50120FDF75E
:103A400053FA01380328F9D835F810102046FCF74E
:103A5000F5FC0020FDF748FAF0E700BF2020202009
:103A600020204C43442054657374202020202020C3
:103A7000000000002020202020202048414C204C25
:103A8000494220202020202000000000202020206B
:103A900020202020204038302020202020202020DE
:103AA00000000000000100020004000802E008C855
:103AB000121F08C1002AFAD170477047002001E0A8
:103AC00001C1121F002AFBD1704700000000000056
:103AD00000000102030406070809000000000000BE
:103AE00000000000000000000000000000000000D6
:103AF00000000000000000000000000000000000C6
:103B000000000000000000000000000080018001B3
:103B1000800180018001800180018001800180019D
:103B20008001800180010000000080018001000010
:103B30000000000000000000000000000000CC00B9
:103B4000CC00CC00CC00CC00CC0000000000000079
:103B50000000000000000000000000000000000065
:103B60000000000000000000000000000000000055
:103B7000000000000000600C600C600C3006300695
:103B8000FE1FFE1F300638071803FE1FFE1F180316
:103B900018038C018C018C01000000008000E00300
:103BA000F80F9C0E8C1C8C188C009800F801E00714
:103BB000800E801C8C188C189C18B80CF00FE00339
:103BC00080008000000000000000000000000000F5
:103BD0000E181B0C110C11061106110311039B0189
:103BE0008E01C038C06C6044604430443044184496
:103BF000186C0C380000000000000000E001F00329
:103C00003807180618063003F001F000F8009C3160
:103C10000E33061E061C061C063FFC73F021000036
:103C200000000000000000000000000000000C0088
:103C30000C000C000C000C000C0000000000000048
:103C40000000000000000000000000000000000074
:103C5000000000000000000000000000000200035F
:103C60008001C000C0006000600030003000300003
:103C70003000300030003000300060006000C000D4
:103C8000C00080010003000200000000200060006E
:103C9000C00080018001000300030006000600064A
:103CA000000600060006000600060003000380016F
:103CB0008001C00060002000000000000000000043
:103CC000000000000000C000C000D806F807E001B6
:103CD0003003380700000000000000000000000072
:103CE00000000000000000000000000000000000D4
:103CF000000000000000800180018001800180013F
:103D0000FC3FFC3F800180018001800180010000B8
:103D100000000000000000000000000000000000A3
:103D20000000000000000000000000000000000093
:103D30000000000000000000000000008001800181
:103D400000010001800000000000000000000000F1
:103D50000000000000000000000000000000000063
:103D60000000E007E0070000000000000000000085
:103D70000000000000000000000000000000000043
:103D80000000000000000000000000000000000033
:103D9000000000000000000000000000C000C000A3
:103DA000000000000000000000000000000C000CFB
:103DB00000060006000600030003000380038001E4
:103DC00080018001C000C000C000600060000000F1
:103DD000000000000000000000000000E003F00709
:103DE000380E180C0C180C180C180C180C180C1891
:103DF0000C180C180C18180C380EF007E003000013
:103E00000000000000000000000000000001800130
:103E1000C001F001980188018001800180018001CA
:103E2000800180018001800180018001800100000B
:103E3000000000000000000000000000E003F80F98
:103E4000180C0C180C1800180018000C00060003C1
:103E50008001C000600030001800FC1FFC1F000043
:103E6000000000000000000000000000E001F80772
:103E7000180E0C0C0C0C000C0006C003C007000C44
:103E8000001800180C180C18180CF807E0030000B4
:103E9000000000000000000000000000000C000E08
:103EA000000F000F800DC00C600C600C300C180C63
:103EB0000C0CFC3FFC3F000C000C000C000C000044
:103EC000000000000000000000000000F80FF80FE4
:103ED000180018000C00EC03FC071C0E001C001856
:103EE000001800180C181C0C180EF807E00300004E
:103EF000000000000000000000000000C007F00FFC
:103F0000381C181818000C00CC03EC0F3C0E1C1CBD
:103F10000C180C180C18181C380EF007E0030000E1
:103F2000000000000000000000000000FC1FFC1F5B
:103F3000000C00060006000380038001C001C000E1
:103F4000E0006000600070003000300030000000D1
:103F5000000000000000000000000000E003F00787
:103F6000380E180C180C180C3806F007F007180C4F
:103F70000C180C180C180C18380CF80FE003000083
:103F8000000000000000000000000000E003F00757
:103F9000380E1C0C0C180C180C181C1C381EF81BA6
:103FA000E0190018000C000C1C0EF807F0010000CE
:103FB0000000000000000000000000000000000001
:103FC00000000000000080018001000000000000EF
:103FD00000000000000000000000800180010000DF
:103FE00000000000000000000000000000000000D1
:103FF00000000000000080018001000000000000BF
:1040000000000000000000000000800180010001AD
:10401000000180000000000000000000000000001F
:10402000000000000000000000000010001C800FD5
:10403000E003F8001800F800E003800F001C0010F7
:104040000000000000000000000000000000000070
:1040500000000000000000000000F81F0000000049
:104060000000F81F00000000000000000000000039
:104070000000000000000000000000000000000040
:104080000000000000000000000008003800F001FF
:10409000C007001F0018001FC007F001380008000B
:1040A000000000000000000000000000E003F80F26
:1040B000180C0C180C180018000C000600038001E6
:1040C000C000C000C00000000000C000C000000030
:1040D0000000000000000000000000000000E007F9
:1040E00018180420C229224A1144094409440944E9
:1040F00009221113E20C024004201818E007000006
:1041000000000000000000000000000080038003A9
:10411000C006C006C006600C600C3018301830189D
:10412000F83FF83F1C700C600C6006C006C0000031
:10413000000000000000000000000000FC03FC0F75
:104140000C0C0C180C180C180C0CFC07FC0F0C18A1
:104150000C300C300C300C300C18FC1FFC0700002D
:10416000000000000000000000000000C007F01F79
:1041700038381C300C700660060006000600060089
:104180000600060006600C701C30F01FE0070000FF
:10419000000000000000000000000000FE03FE0F11
:1041A000060E0618061806300630063006300630B1
:1041B0000630063006180618060EFE0FFE03000035
:1041C000000000000000000000000000FC3FFC3F79
:1041D0000C000C000C000C000C00FC1FFC1F0C0061
:1041E0000C000C000C000C000C00FC3FFC3F00001D
:1041F000000000000000000000000000F83FF83F51
:1042000018001800180018001800F81FF81F1800F0
:1042100018001800180018001800180018000000F6
:10422000000000000000000000000000E00FF83F68
:104230003C780E6006E007C00300030003FE03FEA7
:1042400003C007C006C00EC03CF0F83FE00F0000FE
:104250000000000000000000000000000C300C30E6
:104260000C300C300C300C300C30FC3FFC3F0C3070
:104270000C300C300C300C300C300C300C3000009A
:10428000000000000000000000000000800180012C
:104290008001800180018001800180018001800116
:1042A0008001800180018001800180018001000087
:1042B00000000000000000000000000000060006F2
:1042C00000060006000600060006000600060006BE
:1042D00000060006180618063807F003E001000083
:1042E000000000000000000000000000063006187A
:1042F000060C060606038601C60066007600DE0090
:104300008E0106030606060C06180630066000003D
:10431000000000000000000000000000180018006D
:1043200018001800180018001800180018001800CD
:1043300018001800180018001800F81FF81F0000D7
:104340000000000000000000000000000EE01EF071
:104350001EF01EF036D836D836D836D866CC66CCA5
:1043600066CCC6C6C6C6C6C6C6C686C386C3000059
:104370000000000000000000000000000C301C30B5
:104380003C303C306C306C30CC30CC308C310C3329
:104390000C330C360C360C3C0C3C0C380C3000004A
:1043A000000000000000000000000000E007F81F0F
:1043B0001C380E70066003C003C003C003C003C0F6
:1043C00003C003C006600E701C38F81FE007000031
:1043D000000000000000000000000000FC0FFC1FB7
:1043E0000C380C300C300C300C300C18FC1FFC0757
:1043F0000C000C000C000C000C000C000C00000069
:10440000000000000000000000000000E007F81FAE
:104410001C380E70066003E003C003C003C003C075
:1044200003C007E006630E3F1C3CF83FE0F700C006
:10443000000000000000000000000000FE0FFE1F52
:1044400006380630063006300638FE1FFE07060323
:104450000606060C06180618063006300660000030
:10446000000000000000000000000000E003F80F62
:104470001C0C0C180C180C001C00F803E00F001E9C
:104480000038063006300E301C1CF80FE007000024
:10449000000000000000000000000000FE7FFE7F22
:1044A0008001800180018001800180018001800104
:1044B0008001800180018001800180018001000075
:1044C0000000000000000000000000000C300C3074
:1044D0000C300C300C300C300C300C300C300C30FC
:1044E0000C300C300C300C301818F81FE0070000AE
:1044F0000000000000000000000000000360063023
:10450000063006300C180C180C18180C180C380E45
:1045100030063006700760036003C001C001000070
:104520000000000000000000000000000360C36104
:10453000C361C3616633663366336633663366339D
:104540006C1B6C1B6C1B2C1A3C1E380E380E0000AA
:104550000000000000000000000000000FE00C70F0
:1045600018303018700C600EC00780038003C00341
:10457000E006700C301C18180C300E6007E00000CC
:1045800000000000000000000000000003C0066002
:104590000C301C383818300C6006E007C00380016E
:1045A0008001800180018001800180018001000084
:1045B000000000000000000000000000FC7FFC7F05
:1045C000006000300018000C000600038001C000ED
:1045D0006000300018000C000600FE7FFE7F000027
:1045E000000000000000000000000000E003E00305
:1045F00060006000600060006000600060006000BB
:1046000060006000600060006000600060006000AA
:1046100060006000E003E0030000000030003000B4
:10462000600060006000C000C000C000C0018001E8
:104630008001800100030003000300060006000063
:10464000000000000000000000000000E003E003A4
:104650000003000300030003000300030003000342
:104660000003000300030003000300030003000332
:1046700000030003E003E003000000000000C001AD
:10468000C00160036003600330063006180C180C8C
:10469000000000000000000000000000000000001A
:1046A000000000000000000000000000000000000A
:1046B00000000000000000000000000000000000FA
:1046C000000000000000000000000000FFFFFFFFEE
:1046D0000000000000000000000000000C000C00C2
:1046E0000C000C000C000C0000000000000000009A
:1046F00000000000000000000000000000000000BA
:1047000000000000000000000000000000000000A9
:10471000000000000000F003F8071C0C0C0C000F58
:10472000F00FF80C0C0C0C0C1C0FF80FF01800001C
:104730000000000000000000000000001800180049
:10474000180018001800D803F80F380C181818189B
:104750001818181818181818380CF80FD803000073
:104760000000000000000000000000000000000049
:10477000000000000000C003F007300E180C180005
:10478000180018001800180C300EF007C0030000C5
:1047900000000000000000000000000000180018E9
:1047A000001800180018C01BF01F301C181818182B
:1047B0001818181818181818301CF01FC01B000003
:1047C00000000000000000000000000000000000E9
:1047D000000000000000C003F00F300C1818F81F94
:1047E000F81F180018003818301CF00FC007000020
:1047F000000000000000000000000000800FC00F5B
:10480000C000C000C000F007F007C000C000C0003A
:10481000C000C000C000C000C000C000C000000058
:104820000000000000000000000000000000000088
:10483000000000000000E00DF80F180E0C0C0C0C2E
:104840000C0C0C0C0C0C0C0C180EF80FE00D000CE2
:104850000C0C1C06F807F0010000000018001800FE
:10486000180018001800D807F80F381C1818181866
:1048700018181818181818181818181818180000E8
:10488000000000000000000000000000C000C000A8
:10489000000000000000C000C000C000C000C00058
:1048A000C000C000C000C000C000C000C0000000C8
:1048B000000000000000000000000000C000C00078
:1048C000000000000000C000C000C000C000C00028
:1048D000C000C000C000C000C000C000C000C000D8
:1048E000C000C000F8007800000000000C000C00C0
:1048F0000C000C000C000C0C0C060C038C01CC0002
:104900006C00FC009C018C030C030C060C0C0000DA
:10491000000000000000000000000000C000C00017
:10492000C000C000C000C000C000C000C000C00087
:10493000C000C000C000C000C000C000C000000037
:104940000000000000000000000000000000000067
:104950000000000000007C3CFF7EC7E383C183C1F0
:1049600083C183C183C183C183C183C183C100006B
:104970000000000000000000000000000000000037
:104980000000000000009807F80F381C18181818CD
:1049900018181818181818181818181818180000C7
:1049A0000000000000000000000000000000000007
:1049B000000000000000C003F00F300C1818181899
:1049C0001818181818181818300CF00FC003000029
:1049D00000000000000000000000000000000000D7
:1049E000000000000000D803F80F380C1818181841
:1049F0001818181818181818380CF80FD8031800B9
:104A00001800180018001800000000000000000046
:104A1000000000000000C01BF01F301C1818181800
:104A20001818181818181818301CF01FC01B001878
:104A30000018001800180018000000000000000016
:104A4000000000000000B007F003700030003000EC
:104A50003000300030003000300030003000000006
:104A60000000000000000000000000000000000046
:104A7000000000000000E003F003380E180C3800BE
:104A8000F003C007000C180C380EF007E00300001C
:104A90000000000000000000000000000000800096
:104AA000C000C000C000F007F007C000C000C00098
:104AB000C000C000C000C000C000C00780070000E8
:104AC00000000000000000000000000000000000E6
:104AD00000000000000018181818181818181818E6
:104AE0001818181818181818381CF01FE0190000AA
:104AF00000000000000000000000000000000000B6
:104B00000000000000000C18180C180C180C3006DF
:104B100030063006600360036003C001C00100007E
:104B20000000000000000000000000000000000085
:104B3000000000000000C141C141C36163636363C1
:104B400063633636363636361C1C1C1C1C1C0000B3
:104B50000000000000000000000000000000000055
:104B60000000000000001C38381C300C6006600398
:104B70006003600360036006300C381C1C380000C2
:104B80000000000000000000000000000000000025
:104B90000000000000001830301830187018600C49
:104BA000600CE00CC006C006800380038003800117
:104BB0008001C001F0007000000000000000000053
:104BC000000000000000FC1FFC1F000C000600039A
:104BD0008001C000600030001800FC1FFC1F0000B6
:104BE0000000000000000000000000000003800141
:104BF000C000C000C000C000C000C0006000600075
:104C0000300060004000C000C000C000C000C00014
:104C1000C00080010003000000000000800180014E
:104C2000800180018001800180018001800180017C
:104C3000800180018001800180018001800180016C
:104C40008001800180018001000000006000C00040
:104C5000C001800180018001800180010003000308
:104C600000060003000180018001800180018001B5
:104C70008001C00060000000000000000000000093
:104C800000000000000000000000F010F81F080FF6
:104C90000000000000000000000000000000000014
:104CA0000000000000000000000020202020202044
:104CB0002020202020202020202020202020000034
:104CC000E04C00080000002010000000AC3A000892
:104CD000F04C00081000002010040000BC3A00084E
:104CE0001000000001000000FFFF00000024F4009D
:04000005080001D915
:00000001FF
